:020000040C00EE
:100000000008001001020008B1020008B102000857
:10001000B1020008B1020008B102000800000000AF
:10002000000000000000000000000000B102000815
:10003000B102000800000000B1020008B10200088F
:10004000B1020008B1020008B1020008B1020008C4
:10005000913E0008553F0008B1020008B1020008B7
:10006000D93F000800000000000000000000000070
:10007000B102000800000000B1020008B10200084F
:10008000493B0008B1020008B1020008B1020008B3
:10009000B1020008B1020008B1020008B102000874
:1000A000B1020008B1020008B1020008B102000864
:1000B000B1020008B1020008B1020008B102000854
:1000C000B1020008B1020008B1020008B102000844
:1000D000B1020008B1020008B1020008B102000834
:1000E000B1020008B1020008B1020008B102000824
:1000F000B1020008B1020008B1020008B102000814
:10010000B1020008B1020008B1020008B102000803
:10011000B1020008B1020008B1020008B1020008F3
:10012000B1020008093E0008B1020008B10200084F
:10013000B1020008B1020008B1020008B1020008D3
:10014000B1020008B1020008B1020008B1020008C3
:10015000B1020008B1020008B1020008B1020008B3
:10016000000000000000000000000000000000008F
:10017000B1020008B1020008B1020008B102000893
:10018000B1020008B1020008B1020008B102000883
:10019000B1020008B1020008B1020008B102000873
:1001A000B1020008B1020008B1020008B102000863
:1001B000B1020008B1020008B1020008B102000853
:1001C000B1020008B1020008B1020008B102000843
:1001D000B1020008B1020008B102000800000000EE
:1001E000B1020008B1020008B1020008B102000823
:1001F000B102000800000000B10200080000000089
:10020000DFF88CD023488047234C244DAC4209DAD8
:1002100021686268A368043BA2BFC858D050FAE7BF
:100220000C34F3E71E4B1F4CA34208DA19685A68D6
:100230000020043AA4BF8850FBE70833F4E71A48CB
:1002400080471A4880470000308A000C00000020D8
:10025000BC020000EC8C000C00000030000000002C
:10026000308A000C0008001000000000308A000CEA
:100270000008001000000000C00200209C080000E0
:100280000000003000000000000800100000000026
:1002900000080010B50200084802000878020008B3
:1002A0007802000890020008116200081940000856
:1002B000FEE7000098B500AF054A4FF00053144622
:1002C0000FCB84E80F0002F073FF02F0DBFF98BD54
:1002D000C4FF002080B584B000AF2F4BDB6803F46F
:1002E0008033002B3ED02D4BDB6803F00103002B45
:1002F00002D02B4BFB6002E002F0BAFFF860274B04
:100300001B6803F00403002B20D0244B9B6803F0F0
:1003100070631B0E0133BB60204B9B6803F4FE43EC
:100320001B0A01337B601D4B9B6803F4FE031B0C0F
:1003300001333B60BB683A6802FB03F3FA68B2FB27
:10034000F3F37A6802FB03F3FB600DE0134B9B6849
:1003500003F07F0301333B60FA683B68B2FBF3F3C1
:10036000FB6001E00E4BFB600B4BDB68DBB2013343
:10037000FA68B2FBF3F3FB60074B1B6903F0010360
:100380000133FA68B2FBF3F3FB60064AFB681360C3
:100390001037BD4680BD00BF0046005010470050DA
:1003A00000366E01C0FF002080B582B000AF7860DB
:1003B0007B68054A934203D14FF4803000F070F916
:1003C0000837BD4680BD00BF0040044080B485B002
:1003D00000AFF8600B467A60FB72FB7A9B08DBB2D9
:1003E0001846FB7A9B08DBB21A46FB68043253F8C6
:1003F0002220FB7A03F00303DB001946F8238B402D
:10040000DB4302EA0301FB68021D43F82210FB688C
:100410005A6FFB7A5B00194603238B40DB431A407B
:10042000FB685A67FB683A4A934203D0FB68394A33
:1004300093420AD1FB681A6EFB7A012101FA03F399
:10044000DB431A40FB681A6642E07B681B78DBB22C
:100450005BB2002B3CDA7B685A68FB7A9A40FB68F7
:100460005A60FB7ADB08DBB21846FB7ADB08DBB2AA
:100470001A46FB68103253F82220FB7A03F0070378
:100480009B00194607238B40DB4302EA0301FB680C
:1004900000F1100243F82210FB7ADB08DBB21846A9
:1004A000FB7ADB08DBB21A46FB68103253F82220D5
:1004B0007B681B7A1946FB7A03F007039B0001FA5D
:1004C00003F342EA0301FB6800F1100243F8221033
:1004D000FB7A9B08DBB21846FB7A9B08DBB21A4614
:1004E000FB68043253F822207B681B781946FB7A9C
:1004F00003F00303DB0001FA03F342EA0301FB68A4
:10050000021D43F822101437BD465DF8047B704786
:10051000008E0248008F024880B400AF034BD3F82E
:10052000C4301846BD465DF8047B7047004000505B
:1005300080B584B000AF7860FFF7CCFE0B4B1B6832
:100540000B4AA2FB03239A0C7B6802FB03F37B603C
:100550000023FB6003E000BFFB680133FB60FA6827
:100560007B689A42F7D31037BD4680BDC0FF00209C
:1005700083DE1B4380B400AF034B5B681846BD4667
:100580005DF8047B704700BF7440005080B483B0B6
:1005900000AF7860034A7B68D3600C37BD465DF8D6
:1005A000047B704774400050B0B584B002AF7860EF
:1005B000002000F091F800F053FA7B68DB79002B03
:1005C0000AD000F08BFA00BF00F076FA034683F001
:1005D0000103DBB2002BF7D17B685B7A184600F091
:1005E000F5F800BFFFF798FF0346002BFAD17B68B0
:1005F0001B7A184600F00EFA7B681B7C184600F048
:1006000003F97B685B7C184600F026F97B689B7CCD
:10061000184600F00DF97B68DB7C184600F030F9D5
:100620007B689B79002B0AD000F090FA00BF00F0A5
:10063000B5FA034683F00103DBB2002BF7D17B68E8
:10064000DB78002B09D17B689B7983F00103DBB257
:10065000002B17D000F0C6FA14E000F0B3FA7B6864
:1006600099887B68DA787B685B781D467B681B78A5
:100670001C467B689B780093084611462A46234611
:1006800000F0C0FA7B68DB68B3F5803F03D14FF41C
:10069000803000F021F8FFF71DFE0837BD46B0BDE1
:1006A00080B485B000AF78607B681B0FFB607B680F
:1006B00023F07043BB60FA6813465B0013449B0051
:1006C0001A46044B1344BA681A601437BD465DF8E5
:1006D000047B70471444005080B483B000AF78604E
:1006E0000649064BDB6823F480327B681343CB60FA
:1006F0000C37BD465DF8047B704700BF00460050D4
:1007000080B483B000AF78600649064B9B6923F440
:1007100080327B6813438B610C37BD465DF8047BE8
:10072000704700BF0046005080B483B000AF7860CF
:100730000649064B5B6A23F440327B6813434B62E5
:100740000C37BD465DF8047B704700BF0046005083
:1007500080B483B000AF0346FB80FB88002B08D138
:100760000A4A0A4BDB6823F4807323F00103D36049
:1007700007E0064A054BDB6843F4807343F001034E
:10078000D3600C37BD465DF8047B704710470050BE
:1007900080B483B000AF0346FB7100BF094BD3F8B0
:1007A000C43003F00803002BF8D10749064BDB687F
:1007B00023F04002FB791343CB600C37BD465DF854
:1007C000047B7047004000500043005080B483B069
:1007D00000AF0346FB7100BF094BD3F8C43003F0F0
:1007E0000803002BF8D10749064BDB6823F0800291
:1007F000FB791343CB600C37BD465DF8047B704733
:10080000004000500043005080B483B000AF7860D7
:100810000649064BDB6823F0FF027B68013B13436C
:10082000CB600C37BD465DF8047B70470046005036
:1008300080B483B000AF78600649064B1B6A23F092
:1008400001027B68013B13430B620C37BD465DF828
:10085000047B70470046005080B483B000AF7860DE
:100860000649064B1B6923F001027B68013B1343D9
:100870000B610C37BD465DF8047B704700460050A5
:1008800080B483B000AF78600649064B5B6923F003
:1008900001027B68013B13434B610C37BD465DF899
:1008A000047B70470046005080B483B000AF78608E
:1008B0000649064B9B6923F007027B68013B134303
:1008C0008B610C37BD465DF8047B704700460050D5
:1008D00080B483B000AF78600649064BDB6923F033
:1008E0003F027B68013B1343CB610C37BD465DF88B
:1008F000047B70470046005080B483B000AF78603E
:100900000649064B5B6A23F0FF027B68013B1343F9
:100910004B620C37BD465DF8047B704700460050C3
:1009200080B483B000AF0346FB71044AFB79536087
:100930000C37BD465DF8047B704700BF0046005091
:1009400080B400AF054A054B5B6923F4803323F084
:1009500002035361BD465DF8047B704710470050A9
:1009600080B483B000AF78603960284A274B5B6958
:1009700043F00103536100BF244B1B6903F00103E3
:10098000002BF9D0214A214B5B6943F010035361DE
:100990001E493B68013B1A027B68013B1B0613435F
:1009A0004B611A4A194B5B6943F040035361174A84
:1009B000164B5B6923F010035361144A134B5B69B8
:1009C00043F48023536100BF104B1B6903F0040301
:1009D000002BF9D00D4A0D4B5B6923F001035361E5
:1009E00000BF0A4B1B6903F00103002BF9D1074A32
:1009F000064B5B6923F040035361054B0822DA6024
:100A00000C37BD465DF8047B704700BF10470050AF
:100A10006041005080B582B000AF0346FB710F4AC1
:100A20000E4B5B6843F480135360FB79012B0ED1AE
:100A30000A4A0A4B5B6823F4801353606420FFF773
:100A400077FD064A054B5B6843F40023536064203E
:100A5000FFF76EFD0837BD4680BD00BF1047005050
:100A600080B400AF124B1B6803F00103002B09D1C7
:100A70000F4B01225A6000BF0D4B1B6803F00103AE
:100A8000002BF9D00B4B1B6803F40073002B0AD02A
:100A9000084B4FF400729A6000BF064B1B6803F4CA
:100AA0000073002BF9D1BD465DF8047B704700BF91
:100AB000004200500044005080B400AF064B1B6859
:100AC00003F00803002B0CBF01230023DBB2184600
:100AD000BD465DF8047B70470043005080B500AF11
:100AE0004FF40000FFF752FD174A174BDB6923F064
:100AF0003003D36100BFFFF73DFD034603F400035D
:100B0000002BF8D04FF40030FFF740FD0E4B0822C9
:100B10005A6000BFFFF72EFD034603F40033002B9D
:100B2000F8D04FF40020FFF731FD074A064BDB6891
:100B300043F00803D36000BFFFF71CFD034603F436
:100B40000023002BF8D080BD00430050B0B500AFAB
:100B50000F4A0F4B5B6823F4803353600D4D0D4BF0
:100B60005B6823F4702424F0300402F081FB024619
:100B7000094BA3FB02231B0D013B1B0423436B60AA
:100B8000034A034B5B6823F400335360B0BD00BFDE
:100B900010470050004700506BCA5F6B80B400AF35
:100BA000074B1B6803F46073B3F5607F0CBF012330
:100BB0000023DBB21846BD465DF8047B704700BFDA
:100BC0001047005080B400AF054A054B5B6823F422
:100BD000803323F002035360BD465DF8047B704709
:100BE0001047005080B400AF054A054B5B6843F4E2
:100BF000803343F002035360BD465DF8047B7047C9
:100C00001047005080B586B000AFBA607B600346E5
:100C1000FB810B467B73FB891846FFF799FD7B7BB5
:100C2000012B40F08B80FB89002B09D102F020FBC7
:100C30000246544BA3FB02239B0C9B057B6102E005
:100C40004FF0C0637B617B697A6802FB03F2BB688B
:100C5000B2FBF3F37B617B694B4AA2FB03231B09C5
:100C60009B0D3B61494A494B5B6843F0010353606C
:100C700000BF464B1B6803F00103002BF9D0434A29
:100C8000424B5B6843F01003536040493F4B9A6806
:100C90003F4B13407A68013A12021A433B69013B09
:100CA0001B041A43BB68013B1B0613438B60374A86
:100CB000364B5B6843F040035360344A334B5B6808
:100CC00023F010035360314A304B5B6843F48023B8
:100CD000536000BF2D4B1B6803F00403002BF9D0B9
:100CE0002A4A2A4B5B6823F00103536000BF274B5D
:100CF0001B6803F00103002BF9D17B69254AA2FB95
:100D000003235B099B0D3B613A6A3B699A4202D21D
:100D1000386900F045F87B695B081F4AA2FB032392
:100D20005B099B0D3B613A6A3B699A4202D2386982
:100D300000F036F8386A00F033F81CE01349134B22
:100D40009B6823F07F023B6A013B13438B6000BF2B
:100D50000E4B1B6803F01003002BF9D00B4A0B4B12
:100D60005B6843F00103536000BF084B1B6803F04E
:100D70000103002BF9D0094B0522DA601837BD4674
:100D800080BD00BF83DE1B43ABAAAAAA1047005058
:100D9000FF8080F089888888B7600BB6604100507A
:100DA00080B582B000AF78600B490B4B9B6823F491
:100DB000FE027B68013B1B0413438B6000BF064BA4
:100DC0001B6803F02003002BF9D03220FFF7B0FBA3
:100DD0000837BD4680BD00BF1047005080B483B0C7
:100DE00000AF78607B684FF48072DA600C37BD46E4
:100DF0005DF8047B704700BF80B582B000AF7860BB
:100E00007B68104A934203D10420FFF749FC16E0A7
:100E10007B680D4A934203D10820FFF741FC0EE0A6
:100E20007B680A4A934203D11020FFF739FC06E0A1
:100E30007B68074A934202D10648FFF731FC083726
:100E4000BD4680BD00C000400000014000400140A0
:100E5000004000480100001080B582B000AF78600B
:100E60001020FFF75DFD7868FFF7C6FF0837BD4625
:100E700080BD00BF80B584B000AF78600B46FB70CA
:100E80007868FFF7E9FF7868FFF7A8FF7B681B68C1
:100E9000FB60FB6823F44043FB60FB789B03FA682C
:100EA0001343FB607B68FA681A601037BD4680BD4B
:100EB00080B483B000AF786039603B681A687B68A3
:100EC0005A613B685B79C3F34013DBB21A057B6858
:100ED0005A603B681B79C3F30303DBB21A467B6895
:100EE0005A623B685B79C3F30303DBB21A467B6843
:100EF0001A623B685B79C3F30013DBB21A467B6866
:100F00009A613B681B79C3F30313DBB21A467B6813
:100F1000DA620C37BD465DF8047B704780B485B05B
:100F200000AF78600B46FB707B689B6AFB60FB68D8
:100F300023F47063FB60FB781B02FA681343FB60C9
:100F40007B68FA689A62FA787B685A621437BD4601
:100F50005DF8047B704700BF80B487B000AF786055
:100F60000B46FB701346BB70FB780B2B36D801A2E7
:100F700052F823F0A50F0008A50F0008AF0F0008D6
:100F8000AF0F0008DD0F0008DD0F0008DD0F0008BF
:100F9000DD0F0008B90F0008C50F0008D10F0008C9
:100FA000D10F000803233B6100237B611BE00C236E
:100FB0003B6102237B6116E04FF440733B610823E1
:100FC0007B6110E04FF440633B610A237B610AE0E0
:100FD0004FF440533B610C237B6104E000233B61F1
:100FE00000237B6100BF3B69002B13D07B68D3F8E3
:100FF000A830FB603B69DB43FA681340FB60BA78BA
:101000007B6902FA03F3FA681343FB607B68FA68B2
:10101000C3F8A8201C37BD465DF8047B704700BFAD
:1010200080B483B000AF78607B684FF48072DA6080
:101030000C37BD465DF8047B704700BF80B483B0B9
:1010400000AF78607B6801221A610C37BD465DF8FD
:10105000047B704780B582B000AF78607B68094A36
:10106000934203D18020FFF71BFB07E07B68064A11
:10107000934203D14FF48070FFF712FB0837BD464F
:1010800080BD00BF000002400040024080B582B039
:1010900000AF78601020FFF743FC7868FFF7DAFFB5
:1010A0000837BD4680BD00BF80B584B000AF786012
:1010B0000B46FB707868FFF7E9FF7868FFF7B0FF31
:1010C0007B681B68FB60FB6823F44043FB60FB7894
:1010D0009B03FA681343FB607B68FA681A60103759
:1010E000BD4680BD80B582B000AF78603960786859
:1010F000FFF7A4FF3B681A687B685A613B685B7B1B
:10110000C3F30013DBB21A057B685A603B681B7B94
:10111000C3F30303DBB21A467B685A623B681B7B4E
:10112000C3F30313DBB21A467B68DA623B685B7B6E
:10113000C3F30303DBB21A467B681A623B685A6842
:101140007B689A613B689B6883F014027B689A64B1
:101150000837BD4680BD00BF80B485B000AF786061
:1011600039607B681B68FB603B681B0CDB43FA68DB
:101170001340FB603B689BB2FA681343FB607B68DB
:10118000FA681A601437BD465DF8047B704700BFEB
:1011900080B485B000AF78600B46FB701346BB701F
:1011A0007B685B68BB60BB6823F00303BB60FB78B4
:1011B000BA681343BB607B68BA685A607B685B6936
:1011C000FB60BB78012B04D1FB6843F48063FB60B8
:1011D00003E0FB6823F48063FB607B68FA685A6174
:1011E0001437BD465DF8047B704700BF80B485B0FE
:1011F00000AF78600B46FB701346BB707B685B6882
:10120000FB60FB6823F00C03FB60FB789B00FA6833
:101210001343FB607B68FA685A607B685B69BB605C
:10122000BB6823F44073BB60BB781B02BA681343EE
:10123000BB607B68BA685A611437BD465DF8047BB1
:10124000704700BF80B485B000AF78600B46FB707C
:101250007B685B68FB60FB6823F44053FB60FB78B2
:101260001B03FA681343FB607B68FA685A60143703
:10127000BD465DF8047B704780B485B000AF7860F0
:101280000B46FB707B685B69FB60FB6823F08003A7
:10129000FB60FB78DB01FA681343FB607B68FA684C
:1012A0005A611437BD465DF8047B704780B485B041
:1012B00000AF7860084611461A460346FB700B469D
:1012C000BB7013467B707B685B68BB60BB6823F4B4
:1012D0004023BB60FB789B04BA681343BB607B6808
:1012E000BA685A607B685B69FB60BB78012B04D1EC
:1012F000FB6843F08073FB6003E0FB6823F08073BE
:10130000FB603B7E002B04D0FB6843F40003FB60D2
:1013100003E0FB6823F40003FB60FB6823F0C05389
:10132000FB607B78DB06FA681343FB607B68FA6836
:101330005A611437BD465DF8047B704780B485B0B0
:1013400000AF78600B46FB707B685B68FB60FB68F6
:1013500023F44043FB60FB789B03FA681343FB6074
:101360007B68FA685A601437BD465DF8047B7047A5
:1013700080B485B000AF78600B46FB707B685B681B
:10138000FB60FB6823F44073FB60FB781B02FA6888
:101390001343FB607B68FA685A601437BD465DF8FA
:1013A000047B704780B485B000AF78600B46FB705B
:1013B0007B685B68FB60FB6823F44063FB60FB7841
:1013C0009B02FA681343FB607B68FA685A60143723
:1013D000BD465DF8047B704780B485B000AF78608F
:1013E0007B685B68FB60FB6823F48033FB60FB6811
:1013F00043F48033FB607B68FA685A601437BD465B
:101400005DF8047B704700BF80B485B000AF7860A2
:101410000B46FB701346BB707B685B68BB60BB68A8
:1014200023F40033BB60BB6843F40033BB607B68CC
:10143000BA685A607B685B69FB60BB78002B04D09C
:10144000FB6843F40013FB6003E0FB6823F4001324
:10145000FB60FB78012B04D1FB6843F48003FB6045
:1014600003E0FB6823F48003FB607B68FA685A6141
:101470001437BD465DF8047B704700BF80B487B069
:1014800000AFF860B9607A60FB681B687B617B69BC
:1014900023F440237B61BB685B789B047A69134328
:1014A0007B617B6923F440137B617B685B781B0560
:1014B0007A6913437B617B6923F400037B61BB681A
:1014C0009B78DB057A6913437B617B6923F080732A
:1014D0007B617B689B781B067A6913437B617B6920
:1014E00023F0C0537B61BB68DB78DB067A6913436A
:1014F0007B617B6923F0C0437B617B68DB785B07A2
:101500007A6913437B617B6923F0F0037B61BB68DD
:101510001B781B017A6913437B617B6923F4706339
:101520007B617B681B781B027A6913437B61FB68D4
:101530007A691A601C37BD465DF8047B704700BFAE
:1015400080B489B000AFF8600B467A60FB72FB7A1A
:10155000013BFB77FB681B68BB61FB7F5B00DBB279
:101560001033FB75FB7D032202FA03F3DB43BA69F8
:101570001340BB617B685B781A46FB7D02FA03F37C
:10158000BA691343BB61FB7F1633FB75FB7D0122F8
:1015900002FA03F3DB43BA691340BB617B689B78B3
:1015A0001A46FB7D02FA03F3BA691343BB61FB7F62
:1015B0005B00DBB21933FB75FB7D032202FA03F3F8
:1015C000DB43BA691340BB617B68DB781A46FB7D5D
:1015D00002FA03F3BA691343BB61FB7F9B00FB75FF
:1015E000FB7D0F2202FA03F3DB43BA691340BB61B0
:1015F0007B681B781A46FB7D02FA03F3BA69134332
:10160000BB61FB68BA691A602437BD465DF8047B8C
:10161000704700BF80B483B000AF78600B467B801A
:101620007A887B685A630C37BD465DF8047B704747
:1016300080B483B000AF78600B46FB7013463B80EC
:10164000FB78002B03D13A887B68DA6302E03A88A2
:101650007B685A640C37BD465DF8047B704700BF59
:1016600080B487B000AF78600B46FB701346BB7048
:10167000FB780B2B3BD801A252F823F0AD160008E3
:10168000AD160008B7160008B7160008C116000806
:10169000C1160008EF160008EF160008CB16000868
:1016A000D7160008E3160008E316000803237B6141
:1016B00000233B6120E00C237B6102233B611BE0A4
:1016C00030237B6104233B6116E04FF440737B6160
:1016D00008233B6110E04FF440637B610A233B61C8
:1016E0000AE04FF440537B610C233B6104E000238C
:1016F0007B6100233B6100BF7B69002B13D07B68BB
:10170000D3F8A830FB607B69DB43FA681340FB60C9
:10171000BA783B6902FA03F3FA681343FB607B680B
:10172000FA68C3F8A8201C37BD465DF8047B7047F3
:1017300080B483B000AF786039603B685A687B68DA
:101740001A653B689A687B685A653B681A687B68CB
:10175000DA640C37BD465DF8047B704780B584B011
:1017600000AFF8600B467A60FB72F868FEF71CFE6B
:10177000FB681A68FB7A9B0019460F238B40DB43FA
:101780001A407B681B68F97A89008B401A43FB6812
:101790001A60FA7A7B685968FB68043243F82210B1
:1017A0001037BD4680BD00BF80B483B000AF786005
:1017B0000B46FB701346BB70FA78BB7803F003034B
:1017C000D9B27B68083201F00301090153F8220005
:1017D00020F03000014343F822100C37BD465DF87D
:1017E000047B704780B485B000AF786039603B7887
:1017F000C3F30203DBB21A46BB78C3F30403DBB2C4
:101800001B041343FB607B68FA68C3F8F021FB7884
:10181000C3F30013DBB21A07FB78C3F38103DBB217
:101820009B061A43FB78C3F34013DBB25B071343F9
:10183000FB607B68D3F8F021FB68134343F0004260
:101840007B68C3F8F0211437BD465DF8047B704710
:1018500080B483B000AF78607B68D3F8843043F005
:1018600080627B68C3F884200C37BD465DF8047B3A
:10187000704700BF80B483B000AF78607B68D3F856
:10188000843023F080627B68C3F884200C37BD4627
:101890005DF8047B704700BF80B500AF0120FEF704
:1018A000FFFE80BD80B582B000AF78603960FFF781
:1018B000F3FF3B685A697B681A603B685B6843F4D6
:1018C00000427B68C3F880203B689A687B68C3F855
:1018D000A0203B68DA687B68C3F8A4203B681A69DB
:1018E0007B68C3F880223B681A687B68C3F8B8201D
:1018F0000837BD4680BD00BF80B485B000AFF8603A
:10190000B9603B601346FB71FB79002B09D1BA68C3
:1019100040F21F731340FA683968283142F82130C9
:1019200007E0BA68054B1340FA683968283142F875
:1019300021301437BD465DF8047B704700001F0757
:1019400080B485B000AF78607B68D3F8803043F016
:1019500000427B68C3F880200023FB7317E0FB7B09
:101960000F4A52F82330BB60BB68D3F8803003F4D1
:101970004033002B08D000E000BFBB68D3F88030B4
:1019800003F08053002BF7D1FB7B0133FB73FB7B10
:10199000032BE4D91437BD465DF8047B704700BFC4
:1019A0006C83000880B485B000AF78600B46FB7094
:1019B000FB78032B03D9FB78043BFB6001E0FB7849
:1019C000FB607B68D3F8403123F00F027B68C3F8DB
:1019D00040217B68D3F84021FB681A437B68C3F839
:1019E00040211437BD465DF8047B704780B582B056
:1019F00000AF786039603B6878685968002200233E
:101A000000F028F83B68786859680122002300F04C
:101A100021F83B68786899680022012300F01AF8E1
:101A20003B68786899680122012300F013F83B684D
:101A30001A697B68C3F880203B68DA687B68C3F862
:101A4000B8203B6878681968FFF7CCFE0837BD46B8
:101A500080BD00BF80B48DB000AFF860B9603B605E
:101A60001346FB71FB79002B13D10823FB624FF463
:101A7000E0637B620023BB621F233B623B7AC3F3BC
:101A80000403DBB2FB617B7AC3F30203DBB2FB76B8
:101A900013E01823FB624FF0E0637B621023BB620C
:101AA0004FF4F8133B62BB7AC3F30403DBB2FB6170
:101AB000FB7AC3F30203DBB2FB76FB683A68283299
:101AC00053F822307B617B6ADB437A6913407B6188
:101AD000FA7EFB6A02FA03F37A6913437B613B6A7D
:101AE000DB437A6913407B61BB6AFA6902FA03F34C
:101AF0007A6913437B61FB683A682832796943F855
:101B000022103437BD465DF8047B704780B485B041
:101B100000AF78600B46FB707B68D3F88030FB60C9
:101B2000FB6823F00303FB60FB78FA681343FB6058
:101B30007B68FA68C3F880201437BD465DF8047BE3
:101B4000704700BF80B586B000AF78603960002371
:101B5000FB7509E0FB7D394A52F823301846FFF740
:101B600089FEFB7D0133FB75FB7D032BF2D900233E
:101B70003B613B681B7803F00303DBB2002B02D010
:101B80004FF400633B610023FB7521E0FB7D2B4A92
:101B900052F82330D3F88430FB60FB6823F44073A1
:101BA000FB603B681B78C3F38103DBB21B02FA685E
:101BB0001343FB60FA683B691343FB60FB7D1F4ADC
:101BC00052F82330FA68C3F88420FB7D0133FB759B
:101BD000FB7D032BDAD93B685B6843F4000343F4D5
:101BE00000437A68C2F800323B689B6843F0010208
:101BF0007B68C3F804223B681B7803F00303DBB265
:101C0000022B07D17B68D3F8043243F480327B681F
:101C1000C3F804220023FB7509E0FB7D074A52F854
:101C200023301846FFF714FEFB7D0133FB75FB7D67
:101C3000032BF2D91837BD4680BD00BF6C83000866
:101C400080B489B000AFF860B9607A607B681B7AB5
:101C5000BB61FB68D3F888307B61BB68012202FA64
:101C600003F3DB437A6913407B61BB68BA6902FA0C
:101C700003F37A6913437B61FB687A69C3F88820B0
:101C80007B685B7A5BB2002B29DB0023FB61BB68BE
:101C9000012B0AD10823FB61FB68D3F8B03023F491
:101CA000F852FB68C3F8B0200CE0BB68002B09D1E8
:101CB0000023FB61FB68D3F8B03023F01F02FB6800
:101CC000C3F8B020FB68D3F8B0307A68527A51B2CA
:101CD000FA6901FA02F21A43FB68C3F8B020FB6804
:101CE000D3F8C8207B685B681A43FB68C3F8C82038
:101CF0007B681968FB68BA68803243F82210243781
:101D0000BD465DF8047B704780B584B000AF786055
:101D1000144B1B68002B02D1124B134A1A60114B53
:101D20001B68FB607B68033323F003037B600D4B70
:101D30001A687B6813440D4A934207D2094B1A680C
:101D40007B681344074A1360FB6806E004F05AFA04
:101D500002460C2313604FF0FF3318461037BD4680
:101D600080BD00BFC0020020600B0020C0FF00202B
:101D700080B400AFBD465DF8047B704780B483B08B
:101D800000AF786000E000BF7B685A1E7A60002BCD
:101D9000F9D10C37BD465DF8047B704780B500AFC4
:101DA000084A084B1B6823F4806313604FF4EE70FD
:101DB000FFF7E4FF034A034B1B6843F4806313609F
:101DC00080BD00BF0082024880B500AF084A084BC2
:101DD0001B6843F0400313604FF4EE70FFF7CEFF33
:101DE000034A034B1B6823F04003136080BD00BF10
:101DF0000082024880B582B000AF0346FB71FB79D8
:101E000023F00F03FB71094A084B1B6823F00F03F3
:101E100013600649054B1B68FA791209D2B21343C5
:101E20000B60FFF7BBFF0837BD4680BD008302484B
:101E300080B582B000AF204B4FF080321A611E4B4C
:101E400080225A611D4B4FF400029A611B4B4FF4E4
:101E500000025A611F237B601749174B1A687B6881
:101E6000DB4313400B601648FFF788FF3020FFF775
:101E7000C1FF1448FFF782FFFFF790FF45F6D81027
:101E8000FFF77CFFFFF78AFF45F6D810FFF776FFD4
:101E90002020FFF7AFFF0B48FFF770FF282000F06E
:101EA00033F80C2000F030F8062000F02DF800F098
:101EB0004BF80837BD4680BD0083024800820248C7
:101EC0008872050038C1010080B582B000AF0346BA
:101ED000FB710C4A0B4B1B6843F010031360FFF7B8
:101EE00073FFFB791846FFF785FFFB791B01DBB217
:101EF0001846FFF77FFF40F24C40FFF73FFF0837DF
:101F0000BD4680BD0083024880B582B000AF034665
:101F1000FB710C4A0B4B1B6823F010031360FFF797
:101F200053FFFB791846FFF765FFFB791B01DBB216
:101F30001846FFF75FFF4FF47A70FFF71FFF08376F
:101F4000BD4680BD0083024880B500AF0120FFF789
:101F5000DBFF4BF2B030FFF711FF80BD80B500AF63
:101F60000220FFF7D1FF4BF2B030FFF707FF80BD33
:101F700080B584B000AF03460A46FB711346BB71BF
:101F8000BB79012B02D0022B04D00BE0FB79803B04
:101F9000FB7303E0FB79403BFB7300BFFB7B184600
:101FA000FFF7B2FF1037BD4680BD00BF80B582B0DD
:101FB00000AF786006E07B685A1C7A601B78184690
:101FC000FFF782FF7B681B78002BF4D10837BD46F2
:101FD00080BD00BF80B483B000AF78600B46FB705B
:101FE000FB7801229A407B68DA600C37BD465DF8C9
:101FF000047B704780B483B000AF78607B689B68D7
:1020000003F00103002B14BF01230023DBB21846A9
:102010000C37BD465DF8047B704700BF80B483B0C9
:1020200000AF78607B680122DA600C37BD465DF84E
:10203000047B704780B483B000AF78607B68012276
:102040001A610C37BD465DF8047B704780B483B0DD
:1020500000AF78607B6802221A610C37BD465DF8DC
:10206000047B704780B483B000AF78600B467B8000
:102070007A887B685A630C37BD465DF8047B7047ED
:1020800080B483B000AF78600B467B807A887B6831
:10209000DA630C37BD465DF8047B704780B483B0CB
:1020A00000AF786039607B683A681A610C37BD46CA
:1020B0005DF8047B704700BF80B483B000AF7860E8
:1020C0000B46FB707B68D3F8A420FB78012101FA52
:1020D00003F31A437B68C3F8A4200C37BD465DF8B0
:1020E000047B704780B584B000AF78600023FB7339
:1020F0007B6893F8263083F00103DBB2002B09D014
:102100007B6893F82130002B04D1786800F0F8F850
:102110000346FB73FB7B18461037BD4680BD00BFEE
:1021200080B584B000AF78607B6893F82630002BD0
:102130000CD07B6893F82130002B04D17B685B695D
:102140001846FFF76BFF0023FB7301E00123FB73CD
:10215000FB7B18461037BD4680BD00BF80B584B0FC
:1021600000AF7860786800F01DF80346002B11D0AE
:102170007B6893F82630002B0CD07B6893F82130D5
:10218000002B04D17B685B691846FFF753FF0023DF
:10219000FB7301E00123FB73FB7B18461037BD4640
:1021A00080BD00BF80B584B000AF78600023FB73B2
:1021B0007B6893F82130002B06D17B685B69184659
:1021C000FFF718FF0346FB73FB7B18461037BD462D
:1021D00080BD00BF00000000F0B587B000AF7860A0
:1021E00039600123FB757868FFF7DCFF034683F055
:1021F0000103DBB2002B79D07B689A683B689A4276
:1022000074D87B685A683B689A426FD300233B615D
:1022100002E03B6901333B617B685B683A69C2F16C
:102220000F0223FA02F23B689A42F2D37B6893F8DA
:102230002130002B5AD17B681B691B68FB607B68CF
:10224000DA693B69DBB203F00F03D9B2137961F3AA
:10225000030313713B6818464FF00001FB681A46F0
:102260004FF0000302FB01FE00FB03F67644A0FBE7
:102270000223F1180B467968C9690979C1F3030192
:10228000C9B2C1F12006A1F1200022FA01F403FA3B
:1022900006F6344323FA00F0044323FA01F52046FE
:1022A000294615A3D3E9002303F0E0FC02460B46C0
:1022B00092B27B685A847B685B8C012B05D97B6862
:1022C0005B8C013B9AB27B685A847B685A697B6855
:1022D000DB691B79C3F30303DBB210461946FEF733
:1022E0001DFE786800F058F80023FB75FB7D18464A
:1022F0001C37BD46F0BD00BF00E1F5050000000041
:1023000080B584B000AF78607B681B69184600F028
:102310009DFE0346FB737B681B699A687B681B7E86
:1023200010461946FFF756FE7B685A697B68DB69E1
:1023300010461946FEF7BCFD786800F02DF87B6862
:1023400093F82530002B0FD07B685A697B6893F88F
:102350002030104600211A46FEF7FEFD7B685B69BF
:1023600018460021FFF7A8FE7B685B691846FFF757
:102370006DFE7B68012283F826207B6893F8243069
:10238000002B04D07B685B691846FFF747FEFB7B98
:1023900018461037BD4680BD80B582B000AF78606A
:1023A0007B685A697B685B8C10461946FFF75AFEBA
:1023B0007B685B6918460021FFF762FE7B681B693A
:1023C0009A687B68DB6810461946FFF767FE083796
:1023D000BD4680BD80B483B000AF78600B46FB7013
:1023E000FB7801229A407B68DA600C37BD465DF8C5
:1023F000047B704780B483B000AF786039607B683D
:102400005A693B685B041A437B685A610C37BD46C6
:102410005DF8047B704700BF80B483B000AF786084
:102420007B680122DA600C37BD465DF8047B70479B
:1024300080B483B000AF78607B6801221A610C37EA
:10244000BD465DF8047B704780B483B000AF786010
:102450007B6802221A610C37BD465DF8047B704729
:1024600080B483B000AF78607B681B6B9BB218466A
:102470000C37BD465DF8047B704700BF80B483B065
:1024800000AF786039607B683A681A610C37BD46E6
:102490005DF8047B704700BF80B483B000AF786004
:1024A0000B46FB707B68D3F8A420FB78012101FA6E
:1024B00003F31A437B68C3F8A4200C37BD465DF8CC
:1024C000047B704780B586B000AF78600123FB7550
:1024D0000123BB757B681B7F002B40F09A807B68D3
:1024E0001B68D3F88830184600F082FD0346BB75A0
:1024F000BB7D002B40F089807B689A687B681B68F5
:102500005B6C10461946FEF7EDFD7B689A687B68A8
:102510001B685B8810461946FFF77CF87B689A6851
:102520007B681B689B88104600211A46FFF780F8DD
:102530007B689A687B681B68DB88104601211A4615
:10254000FFF776F87B681B685B6CDB7803F00203AF
:10255000DBB2002B08D17B681B685B6CDB7803F077
:102560000403DBB2002B08D07B685A687B681B68C9
:10257000DB6B10461946FEF7EFFD7B685A687B68F7
:102580001B6910461946FFF779FF7B685A687B681C
:102590005B6910461946FFF771FF7B689A687B6894
:1025A0001B681B6C10461946FFF7C2F8786800F0EC
:1025B00057F9786800F034F8786800F0F5F87B682F
:1025C0001B68D3F888301B683B617B681B685B6CB9
:1025D0001B7BC3F30303DBB2FB60FB683A6922FA9F
:1025E00003F33B617B683A691A627B6801221A77C0
:1025F0000023FB757B681B681B78002B0BD0786869
:1026000000F01EFA0346FB7505E07B6800221A778E
:1026100001E00223FB75FB7D18461837BD4680BDDF
:1026200080B582B000AF78607B689A687B681B6871
:102630005B7C104600211A46FFF712F87B689A6807
:102640007B681B689B7C104602211A46FFF708F83E
:102650007B689A687B681B68DB7C104603211A46FE
:10266000FEF7FEFF7B689A687B681B681B7D10463F
:1026700004211A46FEF7F4FF7B689A687B681B68A2
:102680005B7D104605211A46FEF7EAFF7B689A68D3
:102690007B681B689B7D104601211A46FEF7E0FF10
:1026A0007B689A687B681B68DB7D104608211A46A8
:1026B000FEF7D6FF7B689A687B681B681B7E104616
:1026C00009211A46FEF7CCFF7B689A687B681B6875
:1026D0005B7E10460A211A46FEF7C2FF7B681B6824
:1026E0001B7A002B05D07B689B6818460021FFF7FA
:1026F000D3FE7B681B685B7A002B05D07B689B68E8
:1027000018460221FFF7C8FE7B681B689B7A002BE6
:1027100005D07B689B6818460321FFF7BDFE7B68E8
:102720001B68DB7A002B05D07B689B681846042168
:10273000FFF7B2FE7B681B681B7B002B05D07B6814
:102740009B6818460521FFF7A7FE7B681B685B7B2B
:10275000002B05D07B689B6818460121FFF79CFE83
:102760007B681B689B7B002B05D07B689B681846A9
:102770000821FFF791FE7B681B68DB7B002B05D0EF
:102780007B689B6818460921FFF786FE7B681B68FB
:102790001B7C002B05D07B689B6818460A21FFF73D
:1027A0007BFE0837BD4680BD80B582B000AF786043
:1027B0007B681B6893F84830002B0ED07B681B6841
:1027C000D96C7B681B6893F850207B681B685B6D35
:1027D000084611461A46FDF7F9FD7B681B6893F819
:1027E0005830002B0ED07B681B68D96D7B681B6846
:1027F00093F860207B681B685B6E084611461A469A
:10280000FDF7E4FD7B681B6893F86830002B0ED061
:102810007B681B68D96E7B681B6893F870207B68A7
:102820001B685B6F084611461A46FDF7CFFD7B68B3
:102830001B6893F87830002B0FD07B681B68D96F2A
:102840007B681B6893F880207B681B68D3F8843012
:10285000084611461A46FDF7B9FD0837BD4680BD4A
:1028600080B584B002AF78607B689A687B681B682B
:10287000DB69104601211A46FEF762FE7B689A6802
:102880007B681B681B6A104602211A46FEF758FE39
:102890007B689A687B681B685B6A104603211A464E
:1028A000FEF74EFE7B681B6893F82830002B0ED095
:1028B0007B6899687B681B6893F828207B681B6895
:1028C00093F82930084611461A46FEF761FC7B68EA
:1028D0001B6893F82A30002B0ED07B6899687B68C0
:1028E0001B6893F82A207B681B6893F82B300846F6
:1028F00011461A46FEF77AFC7B681B6893F82C3069
:10290000002B09D07B689A687B681B6893F82C3091
:1029100010461946FEF746FD7B681B6893F82D307C
:10292000002B09D07B689A687B681B6893F82D3070
:1029300010461946FEF71CFD7B681B6893F82E3085
:10294000002B09D07B689A687B681B6893F82E304F
:1029500010461946FEF7F2FC7B681B6893F82F308F
:10296000002B13D07B689A687B681B6893F82F3024
:1029700010461946FEF766FC7B689A687B681B6800
:1029800093F8303010461946FEF776FC7B681B68DA
:1029900093F83130002B11D07B6898687B681B68F6
:1029A00093F831107B681B6893F832207B681B68B2
:1029B00093F8333000930323FEF778FC7B681B68A1
:1029C00093F83730032B1AD17B6899687B681B68B2
:1029D00093F839207B681B6893F838300846114615
:1029E0001A46FEF711FD7B681B6893F83630002B02
:1029F00005D07B689B6818460F21FFF7FBFC7B68BE
:102A00001B6893F83430002B05D17B681B6893F862
:102A10003530002B11D07B6899687B681B681A6A77
:102A20007B681B685B6A084611461A46FEF726FD5E
:102A30007B689B681846FEF7CFFC0837BD4680BD13
:102A400080B584B000AF78600123FB737B681B7F87
:102A5000012B03D07B681B7F032B17D17B685A683F
:102A60007B685B7B10461946FFF7B4FC7B681B68EC
:102A700093F82830002B04D17B689B681846FFF739
:102A8000CBFC7B6802221A770023FB73FB7B184682
:102A90001037BD4680BD00BF80B584B000AF786000
:102AA0000123FB737B681B7F002B0ED07B689B6828
:102AB0001846FFF7BDFC7B689B681846FFF7C4FC0F
:102AC0007B6803221A770023FB73FB7B18461037C1
:102AD000BD4680BD80B588B000AFF8600B467A6017
:102AE000FB720123FB77FB681B7F002B36D07B68D2
:102AF00042F21072934231D8FB689B681846FFF788
:102B0000AFFC03460133BB617B68C3F51C53103334
:102B1000BA6902FB03F3144AA2FB03235B0B7B613C
:102B2000FB6899687B699BB2FA7A084611461A4697
:102B3000FEF77EFDFB685A68FB681B691046194664
:102B4000FFF79CFCFB7A002B03D1FB687A685A6282
:102B500002E0FB687A689A620023FB77FB7F1846E5
:102B60002037BD4680BD00BF5917B7D180B58AB0A8
:102B700000AFF860B9607A603B60012387F82730C6
:102B80000023FB61FB681B7F002B6CD0BB68002B14
:102B900069D07B6842F21072934264D83B6842F27B
:102BA000107293425FD8FB681B6AFB61FA69BB68CD
:102BB000B2FBF3F33B62FB681B685B6C1B7803F0B2
:102BC0000103DBB2002B02D03B6A5B083B623B6A2D
:102BD000002B48D03B6AB3F5803F44D27B68C3F5F5
:102BE0001C5310333A6A02FB03F3224AA2FB03236D
:102BF0005B0BBB613B68C3F51C5310333A6A02FBA5
:102C000003F31C4AA2FB03235B0B7B61FB689A68FE
:102C10003B6A9BB2013B9BB210461946FEF7FAFC99
:102C2000FB689A68BB699BB2104600211A46FEF702
:102C3000FFFCFB689A687B699BB2104601211A462B
:102C4000FEF7F6FCFB685A68FB681B6910461946DC
:102C5000FFF714FCFB687A685A62FB683A689A626C
:102C6000002387F8273097F8273018462837BD46C5
:102C700080BD00BF5917B7D180B400AF044BDB68EB
:102C800003F4E0631B0A1846BD465DF8047B7047F9
:102C900000ED00E080B483B000AF0346FB7197F90C
:102CA0000730002B0BDB084997F907305B09FA79ED
:102CB00002F01F02012000FA02F241F823200C3733
:102CC000BD465DF8047B704700E100E080B483B04E
:102CD00000AF0346FB7197F90730002B0CDB094965
:102CE00097F907305B09FA7902F01F02012000FA18
:102CF00002F2603341F823200C37BD465DF8047BB7
:102D0000704700BF00E100E080B483B000AF03462D
:102D10003960FB7197F90730002B0ADB0D4997F9F1
:102D200007303A68D2B29200D2B20B4483F8002343
:102D30000AE00949FB7903F00F03043B3A68D2B279
:102D40009200D2B20B441A760C37BD465DF8047B74
:102D5000704700BF00E100E000ED00E080B489B002
:102D600000AFF860B9607A60FB6803F00703FB61AD
:102D7000FB69C3F10703062B28BF0623BB61FB6970
:102D80000633062B02D9FB69013B00E000237B617F
:102D9000BB69012202FA03F35A1EBB681A407B6921
:102DA0009A407B69012101FA03F3591E7B680B40AD
:102DB000134318462437BD465DF8047B704700BFB7
:102DC00090B583B000AF78607B6859687B6893F8F2
:102DD00021207B680833084611461A46FDF7F6FAAB
:102DE0007B6819687B68DA7F7B6814330846114674
:102DF0001A46FEF7B3FC7B681A687B6893F82030AC
:102E0000104619460122FEF7CFFC7B681C7FFFF7B6
:102E100033FF01467B685B7F1A467B689B7F0846D1
:102E200011461A46FFF79AFF024663B2184611464A
:102E3000FFF76AFF7B6893F82230002B0BD07B688A
:102E40001B7F5BB21846FFF741FF7B681B7F5BB2BD
:102E50001846FFF71FFF002318460C37BD4690BDEC
:102E600080B400AF044BDB6803F4E0631B0A184630
:102E7000BD465DF8047B704700ED00E080B483B090
:102E800000AF0346FB7197F90730002B0BDB0849B5
:102E900097F907305B09FA7902F01F02012000FA66
:102EA00002F241F823200C37BD465DF8047B7047E1
:102EB00000E100E080B483B000AF03463960FB71ED
:102EC00097F90730002B0ADB0D4997F907303A686C
:102ED000D2B29200D2B20B4483F800230AE009492F
:102EE000FB7903F00F03043B3A68D2B29200D2B2EE
:102EF0000B441A760C37BD465DF8047B704700BF63
:102F000000E100E000ED00E080B489B000AFF860BF
:102F1000B9607A60FB6803F00703FB61FB69C3F1EA
:102F20000703062B28BF0623BB61FB690633062B6C
:102F300002D9FB69013B00E000237B61BB690122F0
:102F400002FA03F35A1EBB681A407B699A407B69F8
:102F5000012101FA03F3591E7B680B401343184605
:102F60002437BD465DF8047B704700BF80B582B052
:102F700000AF78607B681B785BB21846FFF77EFF76
:102F80000837BD4680BD00BF90B583B000AF786004
:102F90007B681C78FFF764FF01467B685B781A4604
:102FA0007B689B78084611461A46FFF7ADFF02463C
:102FB00063B218461146FFF77DFF7B68DB78002B74
:102FC00002D07868FFF7D2FF002318460C37BD46C1
:102FD00090BD00BF80B483B000AF78607B684FF4D1
:102FE0008072DA600C37BD465DF8047B704700BF25
:102FF00080B582B000AF78607B685B7B83F00103B3
:10300000DBB2002B0FD07B689A687B681B7B104675
:103010001946FEF749F87B689B681846FFF7DAFF08
:103020007B6801225A73002318460837BD4680BDCD
:1030300080B483B000AF78607B684FF48072DA6050
:103040000C37BD465DF8047B704700BF80B582B089
:1030500000AF78607B685B7B83F00103DBB2002B01
:103060000FD07B689A687B681B7B10461946FDF77A
:1030700001FF7B689B681846FFF7DAFF7B68012237
:103080005A73002318460837BD4680BD80B483B00C
:1030900000AF786039607B68D3F880203B681033DC
:1030A000194601238B401A437B68C3F880200C37F4
:1030B000BD465DF8047B704780B584B000AF786092
:1030C0007B681B7E022B49D17B685A697B681B6930
:1030D00010461946FEF7E6FB0023FB602FE07B68F5
:1030E000FA6853F8223019687B68FA6853F822307E
:1030F0005B6808461946FEF779FC7B68FA6853F866
:1031000022301B6818460321FEF700FD7B68FA6831
:1031100053F822301B7A83F00103DBB2002B05D079
:103120007B685B691846F968FFF7B0FF7B68FA684F
:1031300053F8223000225A72FB680133FB60FB68AF
:10314000032BCCD97B685B7E002B04D07B685B694A
:103150001846FEF7F5FB7B6800221A767B681B7E1B
:1031600018461037BD4680BD80B485B000AF78608A
:103170007B6803F00703FB600C4BDB68BB60BA683D
:103180004FF6FF031340BB60FB681A02BB68134392
:1031900043F0BF6343F40033BB60044ABB68D360B1
:1031A0001437BD465DF8047B704700BF00ED00E0BA
:1031B00080B582B000AF0120FFF7D6FF72B6214B79
:1031C000214A9A60BFF34F8F62B61E4A1D4BD3F857
:1031D000883043F47003C2F888301C4B03F58053E9
:1031E00014331B687B607B6823F00F037B607B6874
:1031F00043F003037B60154B03F5805314337A6867
:103200001A60104A0F4B5B6923F0100353610D4A9B
:103210000C4B5B6923F0080353610A4A094B5B6A54
:1032200023F480335362074A064B5B6A23F400336E
:103230005362044A034B5B6A23F4802353620837CA
:10324000BD4680BD00ED00E0000000080010005801
:1032500080B485B000AF78600023FB737B680122E7
:103260001A70FB7B18461437BD465DF8047B704727
:1032700080B400AF024B1846BD465DF8047B704732
:10328000001BB700B0B586B000AF134B3C1D1D4608
:103290000FCD0FC42B6823603B1D1846FDF784F942
:1032A0000020FDF775FA0020FDF72AFA0420FDF74B
:1032B000FBFAFDF745FB01202021FDF751FB002023
:1032C000FDF732FA0120FDF717FB0120FDF700FBA7
:1032D0001837BD46B0BD00BFB886000880B400AF47
:1032E000044BDB6803F4E0631B0A1846BD465DF837
:1032F000047B704700ED00E080B483B000AF03466C
:10330000FB7197F90730002B0BDB084997F9073061
:103310005B09FA7902F01F02012000FA02F241F87B
:1033200023200C37BD465DF8047B704700E100E0C8
:1033300080B483B000AF03463960FB7197F9073062
:10334000002B0ADB0D4997F907303A68D2B2920098
:10335000D2B20B4483F800230AE00949FB7903F059
:103360000F03043B3A68D2B29200D2B20B441A76F1
:103370000C37BD465DF8047B704700BF00E100E0FC
:1033800000ED00E080B489B000AFF860B9607A6009
:10339000FB6803F00703FB61FB69C3F10703062B1E
:1033A00028BF0623BB61FB690633062B02D9FB69E4
:1033B000013B00E000237B61BB69012202FA03F3B9
:1033C0005A1EBB681A407B699A407B69012101FA49
:1033D00003F3591E7B680B40134318462437BD4640
:1033E0005DF8047B704700BF80B483B000AF7860A5
:1033F0007B68D3F8043243F400727B68C3F804227C
:103400000C37BD465DF8047B704700BF80B485B0C3
:1034100000AFF860B9607A60FB68BA68603253F850
:1034200022207B68012101FA03F342EA0301FB68D1
:10343000BA68603243F822101437BD465DF8047B49
:10344000704700BF80B485B000AFF860B9607A60A3
:103450007B681968FB68BA68A03243F822101437F9
:10346000BD465DF8047B704780B483B000AF7860E0
:1034700039607B683A68C03253F822309BB21846F4
:103480000C37BD465DF8047B704700BF90B585B032
:1034900000AF78607B681B7E022B40F099807B68D0
:1034A000DB681846FFF708FE0346BB737B68DB68E2
:1034B0005A697B689B681046196800220023FEF752
:1034C0001BFA7B68DB685A697B685B6810461946A3
:1034D000FEF738FB0023FB732EE07B681B68FA7B4A
:1034E00053F82230BB60BB689A68BB685B7B1946A7
:1034F000BB681B6810461A46FEF7A2FBBB689A68B9
:10350000BB681B689B78C3F30303DBB21946BB6837
:103510005B6810461A46FFF795FF7B68DB685A69BF
:10352000BB681B7B1946BB685B7B10461A46FFF7DE
:103530006DFFFB7B0133FB73FB7B002BCDD07B68E6
:103540005B681B7A03F00803DBB2002B2CD07B688E
:103550001B69002B28D07B681B691B68DCB2FFF756
:10356000BDFE01467B681B695A687B681B699B68C6
:10357000084611461A46FFF705FF024663B2184691
:103580001146FFF7D5FE7B68DB685A697B685B7E76
:1035900010461946FEF706FA7B681B691B68DBB20A
:1035A0005BB21846FFF7A8FE7B685B69002B02D070
:1035B0007B685B6998477B689B7E002B05D07B68A6
:1035C000DB685B691846FFF70FFF7B68BA7B1A76EA
:1035D0007B681B7E18461437BD4690BD80B582B00F
:1035E00000AF78607B68DB685B691846FFF7FCFE1C
:1035F0000837BD4680BD00BF80B584B000AF78609D
:103600007B689A687B681B689B78C3F30303DBB213
:1036100010461946FFF728FF0346FB81FB89184631
:103620001037BD4680BD00BF80B582B000AF00231B
:10363000FB712D48FFF70CFE0346FB71FB79002B55
:1036400004D12A48FFF722FF0346FB71FB79002BC8
:1036500004D12748FEF746FD0346FB71FB79002B9A
:1036600004D12448FEF73EFD0346FB71FB79002B95
:1036700004D12148FFF788FC0346FB71FB79002B3E
:1036800004D11E48FEF71EFF0346FB71FB79002B99
:1036900004D11B48FEF716FF0346FB71FB79002B94
:1036A00004D11848FEF70EFF0346FB71FB79002B8F
:1036B00004D11548FFF784FB0346FB71FB79002B0F
:1036C00004D11248FFF77CFB0346FB71FB79002B0A
:1036D00004D10F48FFF774FB0346FB71FB791846D2
:1036E0000837BD4680BD00BFC4020020880100200D
:1036F00008000020380000204C86000860000020F0
:1037000094000020C8000020E0850008048600081E
:103710002886000880B58CB002AF43F655233B6085
:103720003B1D00221A60043300221A600433002279
:103730001A60043300221A60043300221A60043332
:1037400000221A60043300221A60043300221A6037
:10375000043300221A6004332B4BD3E90023CDE954
:1037600000232A4806212A4A03F01AFA3B46184643
:10377000264903F047FA274BD3E90023CDE900237C
:1037800025480521224A03F00BFA244BD3E90023F4
:10379000CDE90023224805211D4A03F001FA3B46EA
:1037A0001846204903F02EFA3B4618461C4903F000
:1037B00029FA3B4618461C4903F024FA3B461846B2
:1037C000154903F01FFA3B461846184903F01AFA48
:1037D000174B1B7883F00103DBB2002B05D03B466F
:1037E0001846144903F00EFA04E03B461846124905
:1037F00003F008FAFEF7B2FB3B461846FEF7D6FB8D
:103800002837BD4680BD00BF500B0020480B00206C
:10381000E8860008100B0020280B0020D0020020B2
:10382000000300200802002010020020E401002014
:10383000DB020020F0010020F40100200000000065
:10384000B0B500AFAE4BD3E90001AE4BD3E90023D6
:1038500001F076FD02460B46AB49C1E90023AA4BB5
:10386000D3E90023104619464FF00002A74B02F09F
:10387000A1F90346002B41D0A34BD3E90023104606
:1038800019464FF00002A24B02F08AF90346002BC2
:1038900034D09C4BD3E900234FF000009C4902F048
:1038A0002DF802460B46104619468FA3D3E9002394
:1038B00001F0FAFE02460B46104619464FF0000290
:1038C000944B01F0F1FE02460B469349C1E90023F7
:1038D000914BD3E90023104619464FF000028F4B5D
:1038E00002F00CF802460B468B49C1E90023854BD8
:1038F000D3E900238249C1E900235AE0824BD3E98E
:103900000023104619464FF000024FF0000302F06A
:103910005BF90346002B0FD0794BD3E90023104607
:1039200019464FF000027A4B01F00AFD02460B46A1
:103930007349C1E900230EE0714BD3E9002310461F
:1039400019464FF00002724B01F0FCFC02460B4698
:103950006B49C1E900236A4BD3E900234FF0000013
:103960006B4901F0CBFF02460B46104619465EA399
:10397000D3E9002301F098FE02460B461046194693
:103980004FF00002634B01F08FFE02460B46624986
:10399000C1E90023604BD3E90023104619464FF0DC
:1039A00000025E4B01F0AAFF02460B465A49C1E9EC
:1039B00000235B48FEF7D2FB574BD3E900231046A8
:1039C000194602F033F9034655481946FEF704FC40
:1039D0005348FEF7A5FB534B1B78002B39D0494BBE
:1039E000D3E90001464BD3E9002302F0C5F80346B2
:1039F000002B2ED04C4B1B78002B14BF012300232F
:103A0000DBB283F00103DBB203F00103DAB2464B11
:103A10001A70454B1B78002B0CD0444B1B78563B3F
:103A2000DAB2424B1A70424B1B785633DAB2404B33
:103A30001A700BE03D4B1B785633DAB23B4B1A70D1
:103A40003B4B1B78563BDAB2394B1A70354B002290
:103A50001A702B4BD3E90023104619464FF0000291
:103A6000344B02F093F80346002B35D0324BD3E9A8
:103A70000023104619461EA3D3E9002301F014FECB
:103A800002460B46104619464FF00002294B01F042
:103A900035FF02460B4610461946194BD3E9002361
:103AA00001F002FE02460B4614461D46224BD3E9A6
:103AB00000231046194610A3D3E9002301F0F4FDBA
:103AC00002460B462046294601F03CFC02460B46C6
:103AD0001A49C1E9002305E018494FF00002184BCC
:103AE000C1E90023B0BD00BF0000000080842E416A
:103AF000CDCCCCCCCCCCEC3F9A9999999999B93F43
:103B0000D0020020100B0020300B00200000F0BF7E
:103B10000000F03F00005940180B002000007040EA
:103B200038000020DA020020DB020020F80100202B
:103B3000F90100200000494000020020500B002045
:103B400000005E40AFF3008080B500AF1D48FFF776
:103B500053FD03461A461C4B1A801C4B1B78002B46
:103B60001CD0194B1B88184601F038FD02460B4645
:103B7000104619464FF00002154B01F095FD024624
:103B80000B46104619464FF00002124B01F0DAFBCB
:103B900002460B461049C1E9002305E00E494FF0EB
:103BA00000020C4BC1E900230C4B1B78002B05D005
:103BB00009494FF00002074BC1E90023FFF740FE1F
:103BC00080BD00BF74010020440B0020D8020020FB
:103BD00000E0B83F0000E03F100B0020DA020020B8
:103BE00080B500AF764BD3E90001764BD3E90023D3
:103BF00001F05AFD02460B46104619464FF00002EE
:103C0000714B01F07BFE02460B46104619464FF001
:103C100000026E4B01F096FB02460B461046194619
:103C200065A3D3E9002301F03FFD02460B46104691
:103C300019464FF000024FF0804301F05FFE02464C
:103C40000B466349C1E90023624BD3E900015D4B98
:103C5000D3E9002301F028FD02460B461046194621
:103C60004FF00002584B01F049FE02460B46104649
:103C700019464FF00002554B01F064FB02460B461B
:103C8000104619464CA3D3E9002301F00DFD02466E
:103C90000B46104619464FF000024FF0804301F0EA
:103CA0002DFE02460B464C49C1E900234B4BD3E99C
:103CB0000001444BD3E9002301F0F6FC02460B4619
:103CC000104619464FF000023F4B01F017FE024626
:103CD0000B46104619464FF000023C4B01F032FBF8
:103CE00002460B461046194633A3D3E9002301F0E0
:103CF000DBFC02460B46104619464FF000024FF01F
:103D0000804301F0FBFD02460B463549C1E9002323
:103D1000344B1B7883F00103DBB2002B27D02C4BF4
:103D2000D3E900231046194601F080FF03462E48D0
:103D300000211A46FEF7CEFE274BD3E9002310469A
:103D4000194601F073FF0346284800211A46FEF782
:103D5000C1FE234BD3E900231046194601F066FF4C
:103D60000346234800211A46FEF7B4FE23E0214B08
:103D70001B681D48194642F210720023FEF7F6FE3A
:103D80001C4B1A681C4B1B68184811461A46002326
:103D9000FEF7ECFE174B1A68184B1B6814481146C7
:103DA0001A460023FEF7E2FE15494FF000024FF0DD
:103DB0000003C1E9002380BD000000000088C3406B
:103DC000380B0020500B002000005E400000F03F48
:103DD000E002002008030020E8020020200B002061
:103DE000F0020020D9020020600000209400002092
:103DF000C800002014020020180200201C0200202D
:103E0000D0020020AFF3008080B500AF194B1B78C3
:103E10000133DAB2174B1A70174B1B780133DAB241
:103E2000154B1A70154B1B780133DAB2134B1A700D
:103E3000104B1B78124ADB001344D3E900231149CD
:103E4000C1E900230C4B1B780D4ADB001344D3E976
:103E500000230D49C1E90023084B1B78084ADB0009
:103E60001344D3E900230949C1E90023FFF7B8FE51
:103E700080BD00BFCC020020F8010020F901002025
:103E800010030020380B002008030020200B002026
:103E900080B500AF254B1B78002B14BF01230023F6
:103EA000DBB283F00103DBB203F00103DAB21F4B94
:103EB0001A701E4B1B78002B16D000200221FEF733
:103EC00057F81B48FEF772F81A48FEF729F91A4806
:103ED000FEF726F91948FEF7B3FD1948FEF7B0FDC5
:103EE0001848FEF7ADFD1FE000200221FEF740F864
:103EF0001548FEF75BF81148FEF7CEFD1048FEF7B7
:103F0000CBFD1048FEF7C8FD0B48FEF727F909481E
:103F1000FEF724F90D48FDF731FF0D494FF000027F
:103F20004FF00003C1E9002380BD00BFD80200208C
:103F3000B4010020080000203800002060000020AC
:103F400094000020C8000020C4010020801D2C0423
:103F5000D002002080B500AF194B1B78002B14BF96
:103F600001230023DBB283F00103DBB203F0010382
:103F7000DAB2134B1A701348FEF7F0F81248FEF746
:103F8000EDF80F4B1B78002B0CD0FFF729FE00201B
:103F90000221FDF7EDFF0D48FEF708F80C48FDF78C
:103FA000EDFE0CE000200221FDF7E2FF0948FDF7DD
:103FB000FDFF0548FEF7B4F80248FEF7B1F880BDF2
:103FC000D90200203800002008000020A4010020B1
:103FD00080F0FA02B401002080B500AF0B4B1B78D3
:103FE000002B14BF01230023DBB283F00103DBB2FB
:103FF00003F00103DAB2054B1A7000200221FDF72D
:10400000B7FF0348FDF7D2FF80BD00BFDA020020F2
:10401000D40100200000000080B582B000AF002372
:104020007B601CE0786801F0D9FA02460B46104626
:10403000194617A3D3E9002301F036FB02460B46CD
:104040001046194600F028F802460B460E487968DB
:10405000C9000144C1E900237B6801337B607B68B0
:10406000FF2BDFDDFFF7E0FA0346FB70FB78002B48
:1040700000D0FEE7FDF7DCFEFDF766FF0348FFF723
:10408000ADFAFFF747FBFCE7100300208801002092
:1040900014FCCE8A363B993F30B5224A21F00043CA
:1040A000934287B01CDD204A934205DD02460B4651
:1040B00001F046F907B030BD02AA00F039F800F06F
:1040C000030001281DD0022812D008B3DDE9020147
:1040D000DDE9042300F04CFA01F1004107B030BDE6
:1040E000002300930022002300F056FF07B030BDEC
:1040F0000124DDE90201DDE90423009400F04CFF16
:10410000EAE7DDE90201DDE9042300F031FAD1E755
:104110000124DDE90201DDE90423009400F03CFF05
:10412000C8E700BFFB21E93FFFFFEF7F0000000071
:104130002DE9F04F984B21F000449C428FB0064689
:104140000F468A46154640F38280944B9C4227DCFA
:10415000002987A3D3E9002340F3A48101F0F0F8FC
:104160008F4B9C4206460F4600F0888082A3D3E91D
:10417000002301F0E5F802460B46C5E9002330466E
:10418000394601F0DDF87CA3D3E9002301F0D8F82B
:104190004FF0010BC5E9020158460FB0BDE8F08FA2
:1041A000804B9C4240F388807F4B9C425BDC4FEA13
:1041B000245BABF2164BA4EB0B518946804601F011
:1041C0000DFD01F00BFA06460F4632463B464046CF
:1041D0004946CDE9086701F0B3F80022734B01F0BE
:1041E00063FA8946804601F0F9FC01F0F7F90646CA
:1041F0000F4632463B4640464946CDE90A6701F044
:104200009FF80022694B01F04FFA00220023CDE90C
:104210000C0101F0B1FC002800F06D810023304654
:104220003946002201F0A8FC002814BF0123022314
:1042300002225F49009201915A4608A8294600F0DF
:10424000BFFABAF1000FC0F24B81834607E00022AB
:104250000023C5E90067C5E902234FF0000B58466B
:104260000FB0BDE8F08F02460B4601F069F84FF041
:10427000000BC5E90201C5E90001F0E740A3D3E95D
:10428000002301F05DF840A3D3E9002306460F4662
:1042900001F056F802460B46C5E900233046394680
:1042A00001F04EF838A3D3E9002301F049F84FF0AC
:1042B000010BC5E90201D2E700F026FF34A3D3E9E0
:1042C000002306460F4601F0EFF90022394B01F0BA
:1042D00039F801F083FC834601F080F924A3D3E987
:1042E0000023CDE9040101F0DFF902460B46304618
:1042F000394601F025F820A3D3E9002306460F46EE
:10430000DDE9040101F0D0F9BBF11F0FCDE9020195
:104310003046394652DC284B0BF1FF3253F822303D
:10432000A3424BD0DDE9022301F00AF8804689461A
:10433000C5E9008942464B463046394601F000F84F
:10434000DDE9022300F0FCFFBAF1000FC5E902012C
:1043500085DA09F1004401F10043CBF1000BC5F807
:1043600000806C60A860EB6079E700BFAFF300806D
:1043700000004054FB21F93F3163621A61B4D03D23
:104380000000601A61B4D03D7370032E8A19A33BFC
:1043900083C8C96D305FE43FFB21E93F7BD9024010
:1043A000FB21F93FFB213941FFFFEF7F0000704106
:1043B0006C8700080000E03FEC860008DDE902237E
:1043C00000F0BEFF2415C1F30A53E31A8046894664
:1043D000102BC5E90089ADDD5BA3D3E90023DDE93E
:1043E000040101F061F98046894642464B46304659
:1043F000394600F0A5FFCDE90601DDE90623304688
:10440000394600F09DFF42464B4600F099FF50A30D
:10441000D3E9002306460F46DDE9040101F044F923
:1044200032463B4600F08CFFCDE90201DDE9022374
:10443000DDE9060100F084FFC1F30A53E41A804667
:104440008946312CC5E9008975DD44A3D3E90023F1
:10445000DDE9040101F028F98046894642464B46D1
:10446000DDE9060100F06CFF06460F4632463B468A
:10447000DDE9060100F064FF42464B4600F060FFB4
:1044800038A3D3E9002380468946DDE9040101F021
:104490000BF942464B4600F053FFCDE9020130468E
:1044A00039463FE700F04EFF2B4B9C4206460F4635
:1044B00023D023A3D3E9002300F044FF02460B4698
:1044C000C5E900233046394600F03AFF1CA3D3E982
:1044D000002300F037FF4FF0FF3BC5E90201BEE6C5
:1044E0006A68EB6802F1004203F10043C0F1000B7F
:1044F0006A60EB60B3E603239AE613A3D3E90023D3
:1045000000F020FF12A3D3E9002306460F4600F077
:1045100019FF02460B46C5E900233046394600F034
:104520000FFF0BA3D3E9002300F00CFF4FF0FF3B7C
:10453000C5E9020193E6DDE90667FBE6AFF300801B
:104540003163621A61B4D03D0000601A61B4D03D9D
:104550007370032E8A19A33BFB21F93F0000002E44
:104560008A19A33BC14920259A837B39AFF3008088
:104570002DE9F04F21F00049B9F1795F85B0064689
:104580000F4692469B466BDA01F028FB002800F0AC
:10459000EA8032463B463046394601F085F874A33E
:1045A000D3E9002304460D4601F07EF872A3D3E957
:1045B000002300F0C7FE22462B4601F075F870A3D9
:1045C000D3E9002300F0BCFE22462B4601F06CF834
:1045D0006DA3D3E9002300F0B5FE22462B4601F07F
:1045E00063F86BA3D3E9002300F0AAFE22462B4612
:1045F00001F05AF868A3D3E9002300F0A3FE224695
:104600002B4601F051F8CDE9000120462946002251
:10461000654B01F049F8DDE90023804689462046D4
:10462000294601F041F8524604460D465B463046A5
:10463000394601F039F802460B462046294600F07B
:104640007FFE02460B464046494600F079FE024690
:104650000B460020554900F073FE05B0BDE8F08F11
:1046600002460B4601F020F841A3D3E9002304469B
:104670000D4601F019F840A3D3E9002300F062FED3
:1046800022462B4601F010F83DA3D3E9002300F0A9
:1046900057FE22462B4601F007F83BA3D3E900233F
:1046A00000F050FE22462B4600F0FEFF38A3D3E96F
:1046B000002300F045FE22462B4600F0F5FF36A30E
:1046C000D3E9002300F03EFE2B46224600F0ECFF2B
:1046D000374B9945CDE9000197DD364B994539DCDB
:1046E0000022A9F50013002030499046994600F0B9
:1046F00027FECDE902012046294600222A4B00F080
:10470000D3FF42464B4600F01BFEDDE90023804606
:1047100089462046294600F0C7FF524604460D460A
:104720005B463046394600F0BFFF02460B46204646
:10473000294600F005FE02460B464046494600F079
:10474000FFFD02460B46DDE9020100F0F9FD05B070
:10475000BDE8F08F9FED127B4FF000088DED027BDE
:10476000DFF85490C7E71149002005B0BDE8F08F8D
:10477000D43888BEE9FAA8BDC4B1B4BD9EEE213ECE
:10478000AD529C804F7E923E9015CB19A001FA3E0F
:104790007751C1166CC1563F4C5555555555A53FDF
:1047A000000000000000E73F0000E03F0000F03F95
:1047B0003233D33F0000E93F0000D23FAFF3008027
:1047C0002DE9F04FADF51B7DC64CA49EC64D54F8A7
:1047D000264007942646D41E85FB0475E417C4EBD7
:1047E000A50424EAE4741D460A93E34303EB430360
:1047F000013D02EBC30306932B460B940095651B0A
:104800009C190390089116D42C44013422AEA59F24
:1048100008E057F8250000F0E1FE0135A542E6E882
:10482000020108D0002DF4DA013500200021A54254
:10483000E6E80201F6D1079B002B2ADB079B03F178
:10484000010A0A9B22AF07EBCA0A0DF5E4784FEA8A
:10485000C30B3D46009B002BC0F28081DDF80C901D
:1048600005EB0B040026002774E90223F9E8020196
:1048700000F01AFF02460B463046394600F062FD52
:10488000A54206460F46EFD108355545E8E80267D0
:10489000E0D1079D0A9A05F18043013B9B000EA8D9
:1048A000191DC2EB4272034401440C93D3000D91D5
:1048B0000593EC009AAB2344002D53E9286728DDCB
:1048C0000DF5E47B5C440DF1340A0022874B304641
:1048D000394600F0E9FE01F081F900F07FFE002288
:1048E000834B8046894600F0DFFE02460B46304689
:1048F000394600F025FD01F071F974E902234AF808
:10490000040F4946404600F01DFD5C4506460F4633
:10491000DBD1069C30463946224600F081FC00225D
:104920004FF07F5306460F4600F0BEFE00F0F0FB4E
:104930000022704B00F0B8FE02460B463046394666
:1049400000F0FEFC0F46064601F048F9804600F0F4
:1049500045FE02460B463046394600F0F1FC002C7D
:1049600006460F4640F3E180691E0EABC4F1180203
:1049700053F8213043FA02F000FA02F9C4F11702A9
:104980000EACC9EB030344F82130804443FA02F92A
:10499000B9F1000F32DD002D08F1010840F37182FA
:1049A000002214460DA907E0C3F180700BB1086026
:1049B0000124013295420DDD51F8043F002CF3D063
:1049C000C3F1FF13013203F57F4395420B604FF0B3
:1049D0000104F1DC069B002B0DDD012B00F0AD8006
:1049E000022B08D16A1E0EAB0EA953F82230C3F376
:1049F000150341F82230B9F1020F7DD03046394617
:104A00000022002301F0B8F8002800F0C380079BC3
:104A100005F1FF3A53450DDC0EAB0D9803EB850312
:104A2000002253F8041D834242EA0102F9D1002A10
:104A300040F00C82079B0EAA013B52F82330002B5A
:104A400040F01D820C9A012352F8041D0133002905
:104A5000FAD0EB1805F1010A9A45099340DC0B9B4B
:104A60000A9A0AEB0309099B09F180491946A59B9B
:104A700009F1FF39154401EB020B03EB890922AB65
:104A800003EBC50803EBCB03049372AB03EBCA0A39
:104A900059F8040F00F0A2FD009B002BE8E802018A
:104AA0004FF000064FF0000715DB059BDDF80CB05A
:104AB00008EB0305444674E90223FBE8020100F019
:104AC000F3FD02460B463046394600F03BFCAC4253
:104AD00006460F46EFD1049B9845EAE80267D7D116
:104AE000099DE6E674880008ABAAAA2A0000703E79
:104AF000000070410000204032463B460020BB4988
:104B000000F01EFC06460F46002C3FF477AF069AD5
:104B1000B649002000F084FB02460B463046394679
:104B200000F00EFC06460F4668E710D16B1E0EAA79
:104B300052F823304FEAE3592AE76A1E0EAB0EA95A
:104B400053F82230C3F3160341F8223053E7002212
:104B5000A74B01F02FF850B981464FE708350026E2
:104B600000275545E8E802677FF474AE91E6002D12
:104B700008F10108C8BF4FF002093FF711AF3246F4
:104B80003B460020994900F0DBFB4FF00209064646
:104B90000F4633E7069BCDF80C905A423046394613
:104BA000CDF8148000F03CFB0022924B06460F46E5
:104BB00001F000F8002800F0E68100228E4B30461C
:104BC000394600F071FD01F009F8044600F006FDD9
:104BD0000022884B00F068FD0B46024639463046FD
:104BE00000F0AEFB00F0FAFF069B183305F1010A56
:104BF00006930EAB43F8250043F82A40069A7B49FA
:104C0000002000F00DFBBAF1000F04460D46C0F283
:104C1000C1800AF101034FEAC30872AF0EAA0093E4
:104C200002EB830907EB080659F8040D00F0D6FCE7
:104C300022462B4600F038FD002266E902016E4B49
:104C40002046294600F030FDBE4204460D46EBD119
:104C5000A8F1080806EB08030DF59479CDF818A023
:104C6000DDF81CA0CDF810904FF000089B46BAF17B
:104C7000000FC0F28C80B8F1000FC0F28880DFF81E
:104C80007C915D4600260027002401E0444510DCAD
:104C9000F5E80223F9E8020100F006FD02460B46A2
:104CA0003046394600F04EFB0134A24506460F4619
:104CB000ECDA049B03EBC803C3E90067009B08F12F
:104CC00001089845ABF1080BD1D1A49BDDF818A0E1
:104CD000DDF81090032B35D8DFE813F03B0004001B
:104CE0000400D500009B002009EBC304002174E9F7
:104CF000022300F027FB4C45F9D1039B002B00F069
:104D00008780089D024601F1004385E80C000246B9
:104D10000B46D9E9000100F013FBBAF1000F0BDDDF
:104D20004CAD01240134F5E8022300F00BFBA24551
:104D3000F8DA039B002B78D001F100430899024672
:104D4000C1E90223059B03F007000DF51B7DBDE8BB
:104D5000F08F009B0020002109EBC3090AF1FF3A04
:104D600079E9022300F0EEFABAF1FF3FF6D1039B96
:104D70000246002B65D001F100430899C1E90023E8
:104D8000059B03F007000DF51B7DBDE8F08F0026A5
:104D900000278EE7A49B032BD4D8DFE803F04C3127
:104DA00031020DF59479039B00200021002B00F0C7
:104DB000D880D9F80C30089FD9F80420D9F80050D1
:104DC000D9F80840386103F10043FB60059B3D6062
:104DD00002F1004201F1004103F007007A60BC607B
:104DE00079610DF51B7DBDE8F08F00BF0000F03F3D
:104DF0000000E03F000070410000703E888800081D
:104E0000039B002000210DF59479002B7FF479AFEE
:104E1000089B0246C3E900010B46D9E9000100F0F6
:104E20008FFABAF1000F3FF77BAF0B4608990246A5
:104E3000C1E9022386E7039B002000210246002BE4
:104E400099D10B460899C1E9002399E70EAB069A60
:104E500053F82A30CDF80C90183ACDF81480069209
:104E6000002B7FF4CBAE0EAB03EB8A0353F8041D8B
:104E70000AF1FF3A183A0029F8D00692BEE601235B
:104E8000E7E50024A6E5BAF1000F8CDD4FEACA0879
:104E900009EB080B08F1080CDBE90067CC44CDF8FE
:104EA0001080E0463BED027B304653EC172B394631
:104EB0008DED007B00F046FA04460D4622462B4657
:104EC000DDE9000100F03CFA02460B463046394667
:104ED00000F038FACB4568E9020126462F46CBE9B7
:104EE0000045DFD1BAF1010FDDF810807FF75BAF2D
:104EF00009EB080508F10804D5E900AB4C44A046CD
:104F00000DF5987C35ED027B52465B4651EC170B54
:104F1000CDF810C08DED007B00F014FA06460F4668
:104F200032463B46DDE9000100F00AFA52465B4694
:104F300000F008FADDF810C0654568E90201B246E4
:104F4000BB46C5E90067DDD1002000214EAD74E904
:104F5000022300F0F7F9AC42F9D1039B002B7FF458
:104F600028AFD9E90223089FD9E90045C7E9022300
:104F7000059BC7E9040103F00700C7E900450DF5EB
:104F80001B7DBDE8F08F3046394600F027FE0EABA2
:104F9000AA4643F8250031E62DE9F04F21F00046FE
:104FA000B6F1795F85B004460D469046994604DA1D
:104FB00000F014FE002800F0838022462B46204695
:104FC000294600F071FB22462B4606460F4600F0AC
:104FD0006BFB42A3D3E9002382468B463046394619
:104FE00000F062FB3FA3D3E9002300F0A9F93246A9
:104FF0003B4600F059FB3DA3D3E9002300F0A2F9A2
:1050000032463B4600F050FB3AA3D3E9002300F0C0
:1050100097F932463B4600F047FB38A3D3E900231B
:1050200000F090F90E9BCDE900019BB34046494644
:105030000022294B00F038FBDDE90023CDE9020115
:105040005046594600F030FB02460B46DDE90201AE
:1050500000F076F932463B4600F026FB42464B46CE
:1050600000F06EF91AA3D3E9002306460F46504616
:10507000594600F019FB02460B463046394600F00F
:1050800061F902460B462046294600F059F905B061
:10509000BDE8F08FDDE900233046394600F004FB1F
:1050A0000BA3D3E9002300F04BF952465B4600F016
:1050B000FBFA22462B4600F045F905B0BDE8F08F1B
:1050C0002046294605B0BDE8F08F00BFAFF3008051
:1050D000495555555555C53F0000E03F7CD5CF5A41
:1050E0003AD9E53DEB9C2B8AE6E55A3E7DFEB15769
:1050F000E31DC73ED561C119A0012A3FA6F81011D2
:105100001111813FAFF3008021F00041704700BFD3
:105110002DE9F843C1F30A58A8F2FF35132D0246D2
:105120000B460C460746894606461DDC002D40DB33
:10513000DFF8E88048FA05F808EA010E5EEA07079A
:1051400017D034A3D3E9002300F0FCF80022002399
:1051500000F03AFD20B1002C3FDB29EA08040026CC
:1051600021463046BDE8F883332D06DDB5F5806F66
:105170002FD010461946BDE8F883A8F2134E4FF021
:10518000FF3727FA0EF70742F3D022A3D3E9002313
:1051900000F0D8F80022002300F016FD0028DFD030
:1051A000002C1FDB4C4626EA070621463046BDE8A8
:1051B000F88318A3D3E9002300F0C4F800220023E9
:1051C00000F002FD0028CBD0002C19DB002634466D
:1051D000C6E700F0B7F8BDE8F8834FF480132B4121
:1051E0009944BAE7142D08D0C8F5866808F1030879
:1051F000012303FA08F39E19D4D309F10109D1E779
:1052000024F00042024B3A4318BF1C460026A7E791
:105210000000F0BF9C7500883CE4377EFFFF0F0064
:10522000F8B5C1F30A5604460D460B46174616BBA1
:1052300021F00043034332D00022374B00F034FA10
:10524000364A974204460D460B4637DBC1F30A56F1
:10525000363E3E4440F2FE72964215DD22462B4613
:1052600029A1D1E9000100F05FF827A3D3E90023C9
:1052700000F01AFAF8BD40F2FF72964224D03E4484
:1052800040F2FE729642E9DC002E09DD23F0FF4376
:1052900023F4E00343EA065520462946F8BDF8BD4D
:1052A00016F1350F15DA4CF250339F4222462B4649
:1052B0001DDC17A1D1E9000100F036F814A3D3E9F1
:1052C000002300F0F1F9F8BD02460B4600F03AF871
:1052D000F8BD23F0FF4323F4E003363643EA0655D6
:1052E0002046294600220E4B00F0DEF9F8BD06A14B
:1052F000D1E9000100F018F803A3D3E9002300F07E
:10530000D3F9F8BDAFF300809C7500883CE4377E8C
:1053100059F3F8C21F6EA50100005043B03CFFFFD7
:105320000000903CAFF3008003F0004321F0004206
:1053300043EA0201704700BF81F0004102E000BF74
:1053400083F0004330B54FEA41044FEA430594EA45
:10535000050F08BF90EA020F1FBF54EA000C55EA80
:10536000020C7FEA645C7FEA655C00F0E2804FEA51
:105370005454D4EB5555B8BF6D420CDD2C4480EA33
:10538000020281EA030382EA000083EA010180EA63
:10539000020281EA0303362D88BF30BD11F0004FB1
:1053A0004FEA01314FF4801C4CEA113102D04042E7
:1053B00061EB410113F0004F4FEA03334CEA133322
:1053C00002D0524263EB430394EA050F00F0A7803A
:1053D000A4F10104D5F1200E0DDB02FA0EFC22FA35
:1053E00005F2801841F1000103FA0EF2801843FA29
:1053F00005F359410EE0A5F120050EF1200E012A1A
:1054000003FA0EFC28BF4CF0020C43FA05F3C01857
:1054100051EBE37101F0004507D54FF0000EDCF1D0
:10542000000C7EEB00006EEB0101B1F5801F1BD379
:10543000B1F5001F0CD349085FEA30004FEA3C0C7D
:1054400004F101044FEA445212F5800F80F09A8073
:10545000BCF1004F08BF5FEA500C50F1000041EB77
:10546000045141EA050130BD5FEA4C0C404141EB7B
:10547000010111F4801FA4F10104E9D191F0000FA2
:1054800004BF01460020B1FA81F308BF2033A3F125
:105490000B03B3F120020CDA0C3208DD02F1140C1C
:1054A000C2F10C0201FA0CF021FA02F10CE002F157
:1054B0001402D8BFC2F1200C01FA02F120FA0CFC50
:1054C000DCBF41EA0C019040E41AA2BF01EB045199
:1054D000294330BD6FEA04041F3C1CDA0C340EDC97
:1054E00004F11404C4F1200220FA04F001FA02F3DA
:1054F00040EA030021FA04F345EA030130BDC4F198
:105500000C04C4F1200220FA02F001FA04F340EA8C
:105510000300294630BD21FA04F0294630BD94F03D
:10552000000F83F4801306BF81F480110134013D24
:105530004EE77FEA645C18BF7FEA655C29D094EA95
:10554000050F08BF90EA020F05D054EA000C04BF13
:105550001946104630BD91EA030F1EBF00210020FE
:1055600030BD5FEA545C05D14000494128BF41F09D
:10557000004130BD14F580043CBF01F5801130BD01
:1055800001F0004545F0FE4141F470014FF000008C
:1055900030BD7FEA645C1ABF194610467FEA655C3D
:1055A0001CBF0B46024650EA013406BF52EA0335DF
:1055B00091EA030F41F4002130BD00BF90F0000FCD
:1055C00004BF0021704730B54FF4806404F1320409
:1055D0004FF000054FF0000150E700BF90F0000FC2
:1055E00004BF0021704730B54FF4806404F13204E9
:1055F00010F0004548BF40424FF000013EE700BFB9
:1056000042004FEAE2014FEA31014FEA02701FBF48
:1056100012F07F4393F07F4F81F06051704792F01A
:10562000000F14BF93F07F4F704730B54FF4607494
:1056300001F0004521F0004120E700BF50EA0102DF
:1056400008BF704730B54FF000050AE050EA01028C
:1056500008BF704730B511F0004502D5404261EBFC
:1056600041014FF4806404F132045FEA915C3FF43D
:10567000DCAE4FF003025FEADC0C18BF03325FEAD6
:10568000DC0C18BF033202EBDC02C2F1200300FA8B
:1056900003FC20FA02F001FA03FE40EA0E0021FAB0
:1056A00002F11444C1E600BF70B54FF0FF0C4CF49A
:1056B000E06C1CEA11541DBF1CEA135594EA0C0F50
:1056C00095EA0C0F00F0DEF82C4481EA030621EA8B
:1056D0004C5123EA4C5350EA013518BF52EA0335C6
:1056E00041F4801143F4801338D0A0FB02CE4FF078
:1056F0000005E1FB02E506F00042E0FB03E54FF0A8
:105700000006E1FB03569CF0000F18BF4EF0010E9F
:10571000A4F1FF04B6F5007F64F5407404D25FEA9B
:105720004E0E6D4146EB060642EAC62141EA55514E
:105730004FEAC52040EA5E504FEACE2EB4F1FD0C90
:1057400088BFBCF5E06F1ED8BEF1004F08BF5FEA0E
:10575000500E50F1000041EB045170BD06F00046C0
:1057600046EA010140EA020081EA0301B4EB5C046D
:10577000C2BFD4EB0C0541EA045170BD41F4801165
:105780004FF0000E013C00F3AB8014F1360FDEBF8A
:10579000002001F0004170BDC4F10004203C35DA66
:1057A0000C341BDC04F11404C4F1200500FA05F3E9
:1057B00020FA04F001FA05F240EA020001F000428A
:1057C00021F0004110EBD37021FA04F642EB060100
:1057D0005EEA430E08BF20EAD37070BDC4F10C042A
:1057E000C4F1200500FA04F320FA05F001FA04F2EE
:1057F00040EA020001F0004110EBD37041F10001DA
:105800005EEA430E08BF20EAD37070BDC4F12005E4
:1058100000FA05F24EEA020E20FA04F301FA05F24C
:1058200043EA020321FA04F001F0004121FA04F2F4
:1058300020EA020000EBD3705EEA430E08BF20EAC4
:10584000D37070BD94F0000F0FD101F000464000FE
:1058500041EB010111F4801F08BF013CF7D041EA80
:10586000060195F0000F18BF704703F00046520084
:1058700043EB030313F4801F08BF013DF7D043EA55
:105880000603704794EA0C0F0CEA135518BF95EA0B
:105890000C0F0CD050EA410618BF52EA4306D1D192
:1058A00081EA030101F000414FF0000070BD50EAB1
:1058B000410606BF1046194652EA430619D094EA3B
:1058C0000C0F02D150EA013613D195EA0C0F05D125
:1058D00052EA03361CBF104619460AD181EA030179
:1058E00001F0004141F0FE4141F470014FF0000031
:1058F00070BD41F0FE4141F4780170BD70B54FF0CC
:10590000FF0C4CF4E06C1CEA11541DBF1CEA13554B
:1059100094EA0C0F95EA0C0F00F0A7F8A4EB05042D
:1059200081EA030E52EA03354FEA013100F0888024
:105930004FEA03334FF0805545EA131343EA1263ED
:105940004FEA022245EA111545EA10654FEA0026A2
:105950000EF000419D4208BF964244F1FD0404F55B
:10596000407402D25B084FEA3202B61A65EB0305B7
:105970005B084FEA32024FF480104FF4002CB6EB74
:10598000020E75EB030E22BFB61A754640EA0C00F4
:105990005B084FEA3202B6EB020E75EB030E22BF34
:1059A000B61A754640EA5C005B084FEA3202B6EB75
:1059B000020E75EB030E22BFB61A754640EA9C0034
:1059C0005B084FEA3202B6EB020E75EB030E22BF04
:1059D000B61A754640EADC0055EA060E18D04FEAC2
:1059E000051545EA16754FEA06164FEAC30343EA62
:1059F00052734FEAC2025FEA1C1CC0D111F4801F2F
:105A00000BD141EA00014FF000004FF0004CB6E727
:105A100011F4801F04BF01430020B4F1FD0C88BFC6
:105A2000BCF5E06F3FF6AFAEB5EB030C04BFB6EBD1
:105A3000020C5FEA500C50F1000041EB045170BDC4
:105A40000EF0004E4EEA113114EB5C04C2BFD4EBF1
:105A50000C0541EA045170BD41F480114FF0000E75
:105A6000013C90E645EA060E8DE60CEA135594EAF1
:105A70000C0F08BF95EA0C0F3FF43BAF94EA0C0FF4
:105A80000AD150EA01347FF434AF95EA0C0F7FF469
:105A900025AF104619462CE795EA0C0F06D152EABD
:105AA00003353FF4FDAE1046194622E750EA4106A1
:105AB00018BF52EA43067FF4C5AE50EA41047FF4B2
:105AC0000DAF52EA43057FF4EBAE12E74FF0FF3C17
:105AD00006E000BF4FF0010C02E000BF4FF0010CE8
